:020000040000FA
:1000000060020020F1020000F9020000FB02000083
:10001000FD020000FF0200000103000000000000DC
:1000200000000000000000000000000003030000CA
:1000300005030000000000000703000009030000A2
:100040000B0300000D0300000F030000110300006C
:10005000130300001503000017030000190300003C
:100060001B0300001D0300001F030000210300000C
:1000700023030000250300002703000029030000DC
:100080002B0300002D0300002F03000031030000AC
:10009000330300003503000037030000390300007C
:1000A0003B0300003D0300003F030000410300004C
:1000B000430300004503000047030000490300001C
:1000C0004B0300004D0300004F03000051030000EC
:1000D00053030000550300005703000059030000BC
:1000E0005B0300005D030000000000005F030000F0
:1000F0006103000063030000650300006703000064
:10010000690300006B0300006D0300006F03000033
:1001100000000000000000007103000073030000F5
:100120007503000077030000790300007B030000E3
:100130007D0300007F0300008103000083030000B3
:1001400000000000000000000000000000000000AF
:100150008503000087030000890300008B03000073
:10016000000000000000000000000000000000008F
:10017000000000000000000000000000000000007F
:10018000000000000000000000000000000000006F
:10019000000000000000000000000000000000005F
:1001A000000000000000000000000000000000004F
:1001B0008D0300008F0300009103000093030000F3
:1001C0009503000097030000990300009B030000C3
:1001D0009D0300009F030000A1030000A303000093
:1001E000A5030000A7030000A90300000000000011
:1001F00000000000AB030000AD030000AF030000EF
:10020000B1030000B3030000000000000000000084
:10021000B5030000B7030000B9030000BB030000F2
:10022000BD030000BF030000C1030000C3030000C2
:10023000C5030000C7030000C9030000CB03000092
:10024000CD030000CF030000D1030000D303000062
:10025000D5030000D7030000D9030000DB03000032
:10026000DD030000DF030000E103000000F002F8FE
:1002700000F02EF80AA090E8000C82448344AAF112
:100280000107DA4501D100F023F8AFF2090EBAE810
:100290000F0013F0010F18BFFB1A43F001031847BA
:1002A00058040000680400000023002400250026F4
:1002B000103A28BF78C1FBD8520728BF30C148BFC9
:1002C0000B6070471FB500F012FA1FBD10B510BDCE
:1002D00000F0D7F91146FFF7F5FF00F094F800F0B1
:1002E000F5F903B4FFF7F2FF03BC00F0F9F90000E1
:1002F0003F4880473F480047FEE7FEE7FEE7FEE74E
:10030000FEE7FEE7FEE7FEE7FEE7FEE7FEE7FEE7C5
:10031000FEE7FEE7FEE7FEE7FEE7FEE7FEE7FEE7B5
:10032000FEE7FEE7FEE7FEE7FEE7FEE7FEE7FEE7A5
:10033000FEE7FEE7FEE7FEE7FEE7FEE7FEE7FEE795
:10034000FEE7FEE7FEE7FEE7FEE7FEE7FEE7FEE785
:10035000FEE7FEE7FEE7FEE7FEE7FEE7FEE7FEE775
:10036000FEE7FEE7FEE7FEE7FEE7FEE7FEE7FEE765
:10037000FEE7FEE7FEE7FEE7FEE7FEE7FEE7FEE755
:10038000FEE7FEE7FEE7FEE7FEE7FEE7FEE7FEE745
:10039000FEE7FEE7FEE7FEE7FEE7FEE7FEE7FEE735
:1003A000FEE7FEE7FEE7FEE7FEE7FEE7FEE7FEE725
:1003B000FEE7FEE7FEE7FEE7FEE7FEE7FEE7FEE715
:1003C000FEE7FEE7FEE7FEE7FEE7FEE7FEE7FEE705
:1003D000FEE7FEE7FEE7FEE7FEE7FEE7FEE7FEE7F5
:1003E000FEE7000004480549034A054B704700003A
:1003F000050400006D020000600000206002002083
:1004000060000020704700F0AFF800F0D4F800F072
:10041000F9F84148006820F03C004FF04021C1F855
:10042000FC033E48D0F8FC0320F0F0003B49C1F843
:10043000FC0370E03A48006810F0100F16D100BFBE
:100440003748006800F010001028F9D132480068E1
:1004500020F03C004FF04021C1F8FC032F48D0F8B9
:10046000FC0320F0F0002D49C1F8FC0322E02A48EB
:10047000006800F03C00242810D12748006820F0D4
:100480003C004FF04021C1F8FC032448D0F8FC03A5
:1004900000F110002149C1F8FC0307E01E48006884
:1004A00000F104004FF04021C1F8FC034FF0C800F8
:1004B00000F04DF81848006800F040004028D6D001
:1004C0001548006800F08000802824D11248006898
:1004D00010F03C0F10D11048006840F024004FF09D
:1004E0004021C1F8FC030D48D0F8FC03A0F1100036
:1004F0000A49C1F8FC0307E007480068A0F10400BE
:100500004FF04021C1F8FC0300BF0348006800F031
:1005100080008028F9D08DE7FC4300400060004057
:10052000FC53024000204FF0E02108610D48486173
:10053000002088610846006940F00500086100BF9E
:100540004FF0E020006910F4803FF9D0704700B50B
:10055000024601E0FFF7E6FF1000A2F10102F9D127
:1005600000BD00007F3801003C49096841F00101ED
:100570003A4A116000203A49096841F03C01384A82
:1005800011600021364A20321160364A1160121F74
:10059000116034491039096841F0FC01314A103AC0
:1005A00011603149121D1160111D096841F0FC01F3
:1005B000121D116070472949096841F00401274A5A
:1005C000116000202949096841F0F001274A1160B3
:1005D0000021264A20321160254A1160121F116045
:1005E00023491039096841F0F001214A103A11609D
:1005F0001D49121D1160111D096841F0F001121D05
:10060000116070471549096841F02001134A1160D3
:1006100000200221174A11600021164A2032116081
:10062000154A1160121F116013491039096841F011
:100630001201114A103A11600B49121D1160111D6F
:10064000096841F01201121D11600B491C3909683B
:1006500041F01001084A1C3A1160704708E60F404B
:10066000004400402C4500404B434F4C0064004088
:100670002C650040005402402C55024070477047E2
:100680007047754600F028F8AE46050069465346A7
:1006900020F00700854618B020B5FFF7A3FEBDE89F
:1006A00020404FF000064FF000074FF000084FF0D9
:1006B000000B21F00701AC46ACE8C009ACE8C0096A
:1006C000ACE8C009ACE8C0098D4670470446AFF3FA
:1006D00000802046FFF705FE00487047000000201C
:1006E00001491820ABBEFEE72600020070474FF01C
:1006F0004070E1EE100A704708070000000000207B
:0807000060020000A8020000E5
:04000005000002F104
:00000001FF
