:020000040000FA
:1000000060020020F1020000F9020000FB02000083
:10001000FD020000FF0200000103000000000000DC
:1000200000000000000000000000000003030000CA
:1000300005030000000000000703000009030000A2
:100040000B0300000D0300000F030000110300006C
:10005000130300001503000017030000190300003C
:100060001B0300001D0300001F030000210300000C
:1000700023030000250300002703000029030000DC
:100080002B0300002D0300002F03000031030000AC
:10009000330300003503000037030000390300007C
:1000A0003B0300003D0300003F030000410300004C
:1000B000430300004503000047030000490300001C
:1000C0004B0300004D0300004F03000051030000EC
:1000D00053030000550300005703000059030000BC
:1000E0005B0300005D030000000000005F030000F0
:1000F0006103000063030000650300006703000064
:10010000690300006B0300006D0300006F03000033
:1001100000000000000000007103000073030000F5
:100120007503000077030000790300007B030000E3
:100130007D0300007F0300008103000083030000B3
:1001400000000000000000000000000000000000AF
:100150008503000087030000890300008B03000073
:10016000000000000000000000000000000000008F
:10017000000000000000000000000000000000007F
:10018000000000000000000000000000000000006F
:10019000000000000000000000000000000000005F
:1001A000000000000000000000000000000000004F
:1001B0008D0300008F0300009103000093030000F3
:1001C0009503000097030000990300009B030000C3
:1001D0009D0300009F030000A1030000A303000093
:1001E000A5030000A7030000A90300000000000011
:1001F00000000000AB030000AD030000AF030000EF
:10020000B1030000B3030000000000000000000084
:10021000B5030000B7030000B9030000BB030000F2
:10022000BD030000BF030000C1030000C3030000C2
:10023000C5030000C7030000C9030000CB03000092
:10024000CD030000CF030000D1030000D303000062
:10025000D5030000D7030000D9030000DB03000032
:10026000DD030000DF030000E103000000F002F8FE
:1002700000F02EF80AA090E8000C82448344AAF112
:100280000107DA4501D100F023F8AFF2090EBAE810
:100290000F0013F0010F18BFFB1A43F001031847BA
:1002A00054040000640400000023002400250026FC
:1002B000103A28BF78C1FBD8520728BF30C148BFC9
:1002C0000B6070471FB500F010FA1FBD10B510BDD0
:1002D00000F0D5F91146FFF7F5FF00F094F800F0B3
:1002E000F3F903B4FFF7F2FF03BC00F0F7F90000E5
:1002F0003F4880473F480047FEE7FEE7FEE7FEE74E
:10030000FEE7FEE7FEE7FEE7FEE7FEE7FEE7FEE7C5
:10031000FEE7FEE7FEE7FEE7FEE7FEE7FEE7FEE7B5
:10032000FEE7FEE7FEE7FEE7FEE7FEE7FEE7FEE7A5
:10033000FEE7FEE7FEE7FEE7FEE7FEE7FEE7FEE795
:10034000FEE7FEE7FEE7FEE7FEE7FEE7FEE7FEE785
:10035000FEE7FEE7FEE7FEE7FEE7FEE7FEE7FEE775
:10036000FEE7FEE7FEE7FEE7FEE7FEE7FEE7FEE765
:10037000FEE7FEE7FEE7FEE7FEE7FEE7FEE7FEE755
:10038000FEE7FEE7FEE7FEE7FEE7FEE7FEE7FEE745
:10039000FEE7FEE7FEE7FEE7FEE7FEE7FEE7FEE735
:1003A000FEE7FEE7FEE7FEE7FEE7FEE7FEE7FEE725
:1003B000FEE7FEE7FEE7FEE7FEE7FEE7FEE7FEE715
:1003C000FEE7FEE7FEE7FEE7FEE7FEE7FEE7FEE705
:1003D000FEE7FEE7FEE7FEE7FEE7FEE7FEE7FEE7F5
:1003E000FEE7000004480549034A054B704700003A
:1003F000050400006D020000600000206002002083
:1004000060000020704700F0A9F800F0CEF800F07E
:10041000F3F83D48006820F03C004FF04021C1F85F
:10042000FC033A48D0F8FC0320F0F0003749C1F84B
:10043000FC0367E03648006810F0100F16D100BFCB
:100440003348006800F010001028F9D12E480068E9
:1004500020F03C004FF04021C1F8FC032B48D0F8BD
:10046000FC0320F0F0002949C1F8FC0322E02648F3
:10047000006800F03C00242810D12348006820F0D8
:100480003C004FF04021C1F8FC032048D0F8FC03A9
:1004900000F110001D49C1F8FC0307E01A4800688C
:1004A00000F104004FF04021C1F8FC034FF0C800F8
:1004B00000F047F81448006800F040004028D6D00B
:1004C0001148006800F0800080281BD10E480068A9
:1004D00010F03C0F07D10F480068A0F110000B4945
:1004E000C1F8FC0307E008480068A0F104004FF0E1
:1004F0004021C1F8FC0300BF0348006800F0800001
:100500008028F9D096E70000FC43004000600040DE
:10051000FC530240FC63004000204FF0E0210861E2
:100520000D484861002088610846006940F00500D8
:10053000086100BF4FF0E020006910F4803FF9D05F
:10054000704700B5024601E0FFF7E6FF1000A2F198
:100550000102F9D100BD0000803801003E49096860
:1005600041F001013C4A116000203C49096841F01A
:100570003C013A4A11600021384A20321160384A61
:100580001160121F116036491039096841F0FC01F1
:10059000334A103A11603349121D1160111D096868
:1005A00041F0FC01121D116070472B49096841F0B0
:1005B0000401294A116000202B49096841F0F0012B
:1005C000294A11600021284A20321160274A11600F
:1005D000121F116025491039096841F0F001234AC2
:1005E000103A11601F49121D1160111D096841F078
:1005F000F001121D116070471749096841F0200190
:10060000154A116000201A49096821F01001184AA2
:1006100011600021164A20321160164A1160121F23
:10062000116014491039096841F01001114A103A5B
:1006300011600C49121D1160111D096841F0100173
:10064000121D11600B491C39096841F01001094A5B
:100650001C3A11607047000008E60F40004400405B
:100660002C4500404B434F4C006400402C6500403B
:10067000005402402C550240704770477047754641
:1006800000F028F8AE4605006946534620F0070002
:10069000854618B020B5FFF7A5FEBDE820404FF015
:1006A00000064FF000074FF000084FF0000B21F05C
:1006B0000701AC46ACE8C009ACE8C009ACE8C00929
:1006C000ACE8C0098D4670470446AFF30080204671
:1006D000FFF707FE0048704700000020014918207E
:1006E000ABBEFEE72600020070474FF04070E1EE1F
:1006F000100A70470407000000000020600200009C
:04070000A80200004B
:04000005000002F104
:00000001FF
